:02000000B22B21
:08000800DF00030E8312A000CB
:0E0010000A0EA100040EA2008A110A12BE2BD5
:10002000BF08031D14280800F930FF3E031D1528E2
:100030000000BF0B142808003108B500B4010310FC
:10004000B50DB40DB50DB40D2F30B5070318B40AB6
:10005000003034078A003208B400350882000030CE
:10006000B50045303E280030B5004B303E2800300A
:10007000B50051303E280030B5005730B4070318A2
:10008000B50A35088A00340882000034013402348D
:1000900003340434053406340734083409340A348C
:1000A0000B340C340D340E340F341034113412343C
:1000B00013341434153416341734FA30BF001020BA
:1000C000FA30BF001020FA30BF001020FA30BF0015
:1000D0001020AF0B5D28080005308312BE00BE0B58
:1000E0006F2808000830BD00051000000000000067
:1000F00000006C200310BC0C0318812800000510C0
:100100008328051483286C20BD0B7A28000000008A
:1001100000000000000005146C200000000000003A
:1001200000000000000000000000000000000000CF
:1001300000006C2008000830BB0085100000BB08E0
:10014000031908008510BA0D031885140515000061
:100150000511BB039F2883122508BA009B200800C5
:100160003808831683169B008312831683161C148B
:100170001A088312831283161A088312B900080022
:10018000360883169B008312370883169A00831261
:100190008B1383161C1555309D00AA309D009C14AE
:1001A0001C119C18D1280800C030BC0072203308F4
:1001B000BC0072200800B030BC0072203108BC00C6
:1001C00072203208BC00722008008312B001851D25
:1001D000F4282714043026020318F428251AF428DA
:1001E0002516A5120000AB20051E0129A714043016
:1001F000260203180129A51A01292512A5160000B7
:10020000AB20851E7A292715A30A0319A40A0430F6
:10021000260203183A2901302402031D1129F43063
:100220002302031C3A292508B00027112516A5161C
:100230000000AB20C830BF0010202512A51200001E
:10024000AB20C830BF0010202516A5160000AB203B
:10025000C830BF0010202608B6002808B700C0200C
:10026000F4308312BF0010203008A500AB20A3019A
:10027000A4017C292608043A031D7C2901302402AC
:10028000031D4429F4302302031C7C292508B000F7
:1002900027112516A5160000AB20C830BF0010207E
:1002A0002512A5120000AB20C830BF001020251673
:1002B000A5160000AB20C830BF001020B1012A1CD9
:1002C000B10A31182A14311C2A102A1C6A2901305B
:1002D000A9006B29A9010430B6002908B700C02085
:1002E000F4308312BF0010203008A500AB20A3011A
:1002F000A4017C29A301A4018519182A271C182A06
:1003000027102608053A031DA512043026020318FB
:100310008B2925128D291030A506A608031DA029BA
:10032000A80A2808063C031897290130A8002B08C2
:10033000B1002803B2001C20B3008A110A12D42095
:100340002603031DB329A80A2808063C0318AA2976
:100350000130A8002C08B1002803B2001C20B30013
:100360008A110A12D4202608023A031DC729A80AB6
:100370002808063C0318BE290130A8002D08B1004A
:100380002803B2001C20B3008A110A12D4202608C8
:10039000033A031DDB29A80A2808063C0318D229C2
:1003A0000130A8002E08B1002803B2001C20B300C1
:1003B0008A110A12D4202608043A031DEF29251EAB
:1003C000EB294530B100B201DB201730B1004030DD
:1003D000B200DB20EF291730B100B201DB20260884
:1003E000053A031D172A251E012AA51E012A56308B
:1003F000B100B201DB203230B100B201DB20AA1023
:10040000172A251E0A2AA5123230B1004030B20048
:10041000DB20172AAA18122A5630B1004030B20049
:10042000DB20AA14A5121C30B100B201DB20AB20E6
:10043000051AA52AA71CA52AA710251204302602F2
:100440000318242AA512262A2030A506A608031D73
:100450003A2A2808013C031C302A0630A800312A19
:10046000A8032B08B1002803B2001C20B3008A1196
:100470000A12D4202603031D4E2A2808013C031C1F
:10048000442A0630A800452AA8032C08B1002803F6
:10049000B2001C20B3008A110A12D4202608023AA6
:1004A000031D632A2808013C031C592A0630A800B2
:1004B0005A2AA8032D08B1002803B2001C20B3005B
:1004C0008A110A12D4202608033A031D782A280824
:1004D000013C031C6E2A0630A8006F2AA8032E08D0
:1004E000B1002803B2001C20B3008A110A12D420E4
:1004F0002608043A031D8C2AA51E882A1730B1004D
:10050000B201DB204530B1004030B200DB208C2A44
:100510004530B100B201DB202608053A031DA42AAC
:10052000A51E982A1C30B1004030B200DB20A42A5E
:10053000AA18A02A5630B1004030B200DB20AA141D
:100540001C30B100B201DB20AB20851A0800271D4A
:1005500008002711A60A2A1CB22A2608053C031CFB
:10056000A601B62A2608043C031CA601A501A30186
:10057000A401AA1CC02AAA105630B100B201DB2087
:100580002608B800B0203908A800A8080319CC2A0A
:1005900028080A3C0318CE2A0130A800A608031D2B
:1005A000DB2A25142B08B1002803B2001C20B3005D
:1005B0008A110A12D4202603031DE82AA5142C0848
:1005C000B1002803B2001C20B3008A110A12D42003
:1005D0002608023A031DF62A25152D08B100280326
:1005E000B2001C20B3008A110A12D4202608033A54
:1005F000031D052B251425152E08B1002803B20074
:100600001C20B3008A110A12D4202608043A031DC4
:100610000C2B2514A51425152608053A031D182BA7
:100620002514A5145630B1004030B200DB20AA14C6
:10063000AB200800831225160000AB20E830BF0075
:100640001020A501A5160000AB20E830BF00102047
:10065000A50125140000AB20E830BF001020A50143
:10066000A5140000AB20E830BF001020A50125151F
:100670000000AB20E830BF001020A501251425158F
:100680000000AB20E830BF001020A5012515A514FF
:100690000000AB20E830BF00102008008530831632
:1006A0008100F8308500073083129900FF23831200
:1006B00083168316900083128312203083169F00C6
:1006C000831285018510A801AA10A7019D30810021
:1006D000A0308B008A110A12851E902BB6010130C2
:1006E000B700C02001308312B600B700C02002302E
:1006F0008312B6000130B700C02003308312B60069
:100700000130B700C02004308312B6000130B700BA
:10071000C02083122516A516AB200230AF005D2045
:100720000430B800B0203908A9002908023C031899
:10073000A02B0130A9000430B6000130B700C02062
:100740008312291CA52B2A14A62B2A101A23A501D3
:100750002515A514AB20BC0172200430A6008B1710
:100760000000B02B00308312AB000130AC0002302F
:10077000AD000330AE008A110A124E2B83120B1DFE
:10078000C52B9D3081000B11E520220E8400210E27
:0C0790008A00200E8300DF0E5F0E0900BF
:02400E00843FED
:06420A002000DA0029008B
:044210001100110088
:00000001FF
